:020000040800F2
:10000000000002202DA00008BD960008BF96000841
:10001000C1960008C3960008C596000800000000BD
:10002000000000000000000000000000C79600086B
:10003000C996000800000000CB960008CD96000885
:1000400081A0000881A0000881A0000881A000080C
:1000500081A0000881A0000881A0000881A00008FC
:1000600081A0000881A0000881A00008D1960008A6
:10007000DD960008E9960008F5960008019700084B
:1000800081A0000881A0000881A000080D97000849
:100090001997000881A0000881A0000881A000082D
:1000A00081A0000881A0000881A0000881A00008AC
:1000B00081A0000881A0000881A0000881A000089C
:1000C00081A0000881A0000881A0000881A000088C
:1000D00081A000082597000881A0000881A00008E1
:1000E00081A0000881A000080000000081A0000895
:1000F00081A0000881A0000881A0000881A000085C
:1001000081A0000881A0000881A0000881A000084B
:1001100081A00008319700083D97000881A00008E1
:1001200081A0000881A0000881A0000881A000082B
:1001300081A0000881A0000881A0000881A000081B
:1001400000000000000000000000000000000000AF
:1001500081A0000881A0000881A0000881A00008FB
:1001600081A0000881A0000881A0000881A00008EB
:1001700081A000084997000881A000080000000045
:1001800081A0000881A000085597000881A0000800
:1001900081A0000881A000086197000881A00008E4
:1001A00081A0000881A0000881A0000800000000D4
:1001B00081A0000881A0000881A0000881A000089B
:1001C00081A0000881A000080000000000000000DD
:1001D000000000000000000081A0000800000000F6
:1001E000000000000000000000000000000000000F
:1001F000000000000000000081A0000881A00008AD
:1002000081A0000881A000080000000081A0000873
:1002100081A0000881A0000881A0000881A000083A
:1002200081A000080000000081A00008000000007C
:1002300081A0000881A000080000000081A0000843
:1002400081A000086D97000881A0000881A0000827
:1002500081A0000881A0000881A0000881A00008FA
:1002600081A0000881A0000881A0000881A00008EA
:1002700081A0000881A0000881A000080000000003
:1002800081A0000881A0000881A0000881A00008CA
:100290000000000081A0000881A00008000000000C
:1002A0000000000081A0000881A0000881A00008D3
:1002B00081A0000881A0000881A0000881A000089A
:0C02C0007997000881A0000881A00008C8
:1002CC0053B94AB9002908BF00281CBF4FF0FF31B1
:1002DC004FF0FF3000F00CB8ADF1080C6DE904CE16
:1002EC000AF0C6F8DDF804E0DDE9022304B070473B
:1002FC00704700BF034613F8012B002AFBD1181AD4
:10030C00013870470348044B834202D0034B03B1BE
:10031C001847704700010020000100200000000079
:10032C000548064B1B1AD90F01EBA301491002D04B
:10033C00034B03B118477047000100200001002057
:10034C000000000010B5064C237843B9FFF7DAFF24
:10035C00044B13B10448AFF300800123237010BD8C
:10036C000001002000000000E8A7000808B5054BBC
:10037C001BB105490548AFF30080BDE80840FFF705
:10038C00CFBF00BF0000000004010020E8A7000858
:10039C00284AD2F8883043F47003C2F88830264AD1
:1003AC00136803F00F03062B05D8136823F00F0313
:1003BC0043F007031360214B1A6842F001021A60E4
:1003CC0000221A611E4A19680A401B491A600A6801
:1003DC00100705D50A6822F00F0242F007020A60E6
:1003EC00002218499A61DA611A6299621649D96237
:1003FC00164919635A639963DA6319645A64196864
:10040C0021F4802119601A66D3F8D420D2040FD4B9
:10041C00D3F8D42043F2D20142F48052C3F8D42052
:10042C000B4A1160D3F8D42022F48052C3F8D420A4
:10043C00704700BF00ED00E000200052004402585D
:10044C007FEDF6EA000202020000FF0180020101CA
:10045C0000400052044BDA6842F00202DA605A683B
:10046C009204FCD5704700BF00480258F7B504460B
:10047C0028B30268384B9A4203D08621374808F0DB
:10048C00EDFF94F8953403F0FF0223B9204684F86D
:10049C00942409F0F1FD03232068251D84F895347C
:1004AC0000F02AFE237C8DF80030206895E80E00C1
:1004BC0000F05EFD014630B1022384F8953401252D
:1004CC00284603B0F0BD206800F01CFE0028F3D1D4
:1004DC00267904F1140301270246C1B224338E425B
:1004EC0020D8002104F515730A46C8B2243386427D
:1004FC0026D8237C8DF80030206895E80E0000F09B
:10050C007BFE05460028D7D10123607484F895340E
:10051C00237B012B02D1204600F0F3FC206801F074
:10052C009CF9CDE723F80A0C013003F8237C03F87F
:10053C00241C03F8202C43F8142C43E90722CCE7A5
:10054C00013103F8232C03F8240C03F8202C43F876
:10055C00142C43E90722C8E7000004405CA80008FB
:10056C0010B50446006894F89434012B15D001237F
:10057C0084F89434C3685B0606D5637B012B03D1E6
:10058C00836B43F48033836300F0B0FD206801F08B
:10059C0056F9002084F8940410BD0220FCE710B535
:1005AC0090F894240446012A0AD00122417480F860
:1005BC009424006801F033F9002084F8940410BDF1
:1005CC000220FCE770B50546242401F00F0011F061
:1005DC00800FC2F30A0200FB04F414BF04F11401EF
:1005EC0004F5157105EB040619BF012449194919C5
:1005FC00002414BF747586F855428A604A780870D6
:10060C000B7102B14883022B04BF00234B7195F888
:10061C009434012B09D00123286885F8943400F018
:10062C00AEFE002085F8940470BD0220FCE701F0BA
:10063C000F02242311F0800F02FB03F310B514BF3B
:10064C0003F1140103F515710446184415BF012379
:10065C0000230919091914BF437580F855320A7023
:10066C0094F89434012B09D00123206884F8943435
:10067C0000F0C4FE002084F8940410BD0220FCE7B6
:10068C0038B51546242401F00F02544304F51571B6
:10069C000444C4E99853002384F85422014484F898
:1006AC005532C4F8683282790068012A08BFC4F850
:1006BC00705200F04FFF002038BD01F00F012423D1
:1006CC0003FB0100D0F86802704738B515462424A6
:1006DC0001F00F02544304F114010444C4E908531B
:1006EC00002322750144A36201236375827900689B
:1006FC009A4208BF256300F02DFF002038BD38B5A5
:10070C0001F00F0503790446AB422BD311F0800F97
:10071C004FF024031DD06B43012203F11401034459
:10072C0001445A7501230D708B7094F894249A42ED
:10073C001AD0206884F8943401F01DF82DB904F215
:10074C009C42A179206801F0D7F8002084F8940429
:10075C0038BD4B43002203F515710344014483F863
:10076C005522DFE70120F3E70220F1E738B501F06D
:10077C000F0203790446934225D3242311F0800FF2
:10078C004FF0000502FB03F314BF03F1140103F552
:10079C001571184419BF012309190919002314BF35
:1007AC00437580F855328D700A7094F89434012B8F
:1007BC000BD00123206884F8943401F007F8284604
:1007CC0084F8945438BD0120FCE70220FAE701F0CC
:1007DC000F03242253430A064CBF03F1140103F503
:1007EC0015710144006800F05FBE00002DE9F04F68
:1007FC00066889B00446304601F06BF80390002877
:10080C0040F06E81206801F036F8002800F0688115
:10081C00D6F8083806F500652068C3F30D23C4F834
:10082C00D43401F028F88707236803D55A6902F0FD
:10083C0002025A61184601F01EF8C0062DD5226836
:10084C00936923F010039361D6F8208008F4F01319
:10085C0008F00F07B3F5802F40F0458147F6F07391
:10086C0018EA030F14D02423C8F30A19304603FBEB
:10087C0007474A46D7F8601200F05CFFD7F86032A1
:10088C004B44C7F86032D7F868324B44C7F868322B
:10089C002268936943F010039361206800F0EBFF2A
:1008AC00010300F13381206800F0E5FF42030CD511
:1008BC00274606F5106B4FF0000A206800F0E7FFA2
:1008CC000490049B002B40F0EB81206800F0D3FFD8
:1008DC00002813DA6B6823F001036B6094F8CC34B6
:1008EC00012B40F085820021204684F8CC1400F0C6
:1008FC001BFB2268536903F000435361206800F02E
:10090C00BAFF03050AD5AB68DF0702D5204609F00C
:10091C0025FC2268536903F400635361206800F0DE
:10092C00AAFF000114D523685A6902F000625A61CB
:10093C0094F8CC24002A40F05F820121204684F8F0
:10094C00CC145B6DC3F38303C4F8D03400F0ECFA21
:10095C00206800F090FFC10433D56B68102120682B
:10096C0023F001036B6000F0FBFB207906F51063AC
:10097C004FF67F31039A904200F24282EB6943F0CA
:10098C000113EB61E37B002B00F05882D5F8843027
:10099C0043F00B03C5F884306B6C43F00B036B64B2
:1009AC00D6F8003804F29C42206823F4FE63C6F8A3
:1009BC000038A17900F0A0FF2268536903F480533A
:1009CC005361206800F057FF820416D5206800F0B0
:1009DC0084FF206800F0C8FC2768E07101F074FD0A
:1009EC00E2790146384600F011FB204609F0A3FBE2
:1009FC002268536903F400535361206800F03BFFF5
:100A0C00030707D5204609F092FB2268536903F0CF
:100A1C0008035361206800F02EFF070600F11982CD
:100A2C00206800F028FFC0020CD5A04606F512691C
:100A3C0001272379BB4200F225822268536903F413
:100A4C0080135361206800F016FF81022BD594F8B7
:100A5C0004E0234606F532614FF0010CE6451DD942
:100A6C0093F87C720868012F40F02282002880F2F3
:100A7C001F82D4F8D42482EA1040C20700F11882F5
:100A8C0083F87B72B06940F08000B0617069000639
:100A9C0000F10E826B6843F400736B60226853693B
:100AAC0003F400135361206800F0E5FE410007D504
:100ABC00204609F077FB2268536903F080435361A9
:100ACC00206800F0D8FE42070AD523685D686B07E2
:100ADC0002D5204609F06AFB226853682B43536009
:100AEC0009B0BDE8F08FB3F5402F7FF4D1AE0822EA
:100AFC0004F29C413046C8F30A1800F01BFE242374
:100B0C0003FB0747D7F868324344BFE606F5306865
:100B1C00A2460027206800F0B2FE0490049B002B34
:100B2C003FF4C1AE049BDB0779D55FFA87FB2068E5
:100B3C00594600F0B4FE10F0010F81461FD001237E
:100B4C002068C8F8083000F5306394F806C003EB51
:100B5C004713016CBCF1010F9A6840F08B8012F0C6
:100B6C00080F07D0B348814209D9120407D54FF4B6
:100B7C00004203E012F0200F5AD020229A6019F0A4
:100B8C00080F21D00823AB49C8F8083023681A6C29
:100B9C0003F530638A4203EB4713986804D90004C9
:100BAC0002D54FF4004098602046059209F0A8FA4F
:100BBC00059AA0498A4207D9A179012904D104F2E6
:100BCC009C42206800F098FE19F0100F02D0102300
:100BDC00C8F8083019F0020F14D07369190603D540
:100BEC006B6843F480636B609AF85732012B06D123
:100BFC000023594620468AF8573209F0CBFA0223D3
:100C0C00C8F8083019F0200F02D02023C8F808309B
:100C1C0019F4005F03D04FF40053C8F80830049B5C
:100C2C00013708F120080AF1240A5B08049375E7E0
:100C3C00DFF800C2614501D9120498D41A69DAF8B8
:100C4C007432C2F312029B1ACAF868326FB9D4F824
:100C5C0064222AB904F29C42012100F04DFE04E00A
:100C6C00D4F860221A44C4F860225946204609F090
:100C7C004DFA84E7DFF8C0C1614507D111043FF597
:100C8C0076AF9206F1D520229A60EEE7002FECD1D8
:100C9C00D4F86432002BE8D104F29C423946DCE7EC
:100CAC00049BDA0740F19B805FFA8AF320681946AF
:100CBC00079300F0FDFD10F0010F804620D00121BC
:100CCC000AF00F026B6B01FA02F223EA02036B6368
:100CDC00CBF80810A17901290DD1D7E907231344CA
:100CEC003B62BAF1000F06D1636A23B904F29C424D
:100CFC00206800F001FE5FFA8AF1204609F00FFA35
:100D0C0018F0080F02D00823CBF8083018F0100F99
:100D1C0002D01023CBF8083018F0400F02D040233B
:100D2C00CBF8083018F0020F10D05146304600F0C6
:100D3C0017FAFB7D012B06D100235FFA8AF12046BE
:100D4C00FB7509F02BFA0223CBF8083018F0800F52
:100D5C0045D0D7E909329A4241D8A3EB0208FB6986
:100D6C0021689845059128BF984601F5106308F154
:100D7C00030803EB4A134FEA98080693069B9969FC
:100D8C0089B24145D7E9093227D393420BD8059B49
:100D9C000AF00F000121D3F83428814022EA010225
:100DAC00C3F834281BE0A3EB0209FB69079A9945A9
:100DBC00059828BF9946A37900931FFA89F3396ADD
:100DCC0009F1030800F0B2FB3B6A4FEA98084B4468
:100DDC003B62BB6A4B44BB62D0E79342D7D9049BBE
:100DEC000AF1010A24370BF1200B5B08049368E528
:100DFC00204609F0CBF97CE5204609F0AFF9A7E5D0
:100E0C009960203353F8202C22F4001243F8202C44
:100E1C00C3F8E811D3F8E02122F40012C3F8E02162
:100E2C00D3F8E02142F00062C3F8E021039A0132CA
:100E3C0003929FE50A30544F0A31544F6B6943F4C7
:100E4C00005343F02B036B612B6943F00B032B61B5
:100E5C00A6E5B369012704F257284FF0240923F0C3
:100E6C008003B3612379BB427FF6DAAD09FB07F34C
:100E7C0018F80330012B03D1F9B22046FFF7A7FC79
:100E8C000137EFE798F83C30D9F80020012B09D155
:100E9C00002A07DA67F07F01204688F83B30C9B298
:100EAC00FFF795FC013708F1240809F12009C0E58A
:100EBC000CF1010C24332031D0E500BF0068120482
:100ECC00436A70B519B913438362002070BD846AFC
:100EDC004E1E03EB14430024A64205D83F311343A6
:100EEC0000EB81004360F0E704F14005013400EBB6
:100EFC0085056D6803EB1543EEE703680020596226
:100F0C007047012102680346C0F8D814002083F80A
:100F1C00CC04936943F000639361536D43F08053A9
:100F2C0043F0030353657047704782B000230246B9
:100F3C000193019B01330193019BB3F1706F15D8A1
:100F4C001369002BF5DA00230193136943F00103B5
:100F5C001361019B01330193019BB3F1706F05D8B1
:100F6C00106910F00100F4D102B070470320FBE7C8
:100F7C0084B038B505AD044685E80E009DF81930EF
:100F8C00012B31D1836B23F480338363C36823F447
:100F9C00840323F04003C360C36823F44013C3608D
:100FAC009DF82030012B03D1C36843F48013C36038
:100FBC002046FFF7BAFF9DF81630012B10D1E36DD8
:100FCC009BB2E365E36D43F07B7343F40033E3655D
:100FDC00A36843F00603A360A36843F02003A36057
:100FEC00BDE8384004B07047C36843F04003C360A9
:100FFC00FFF79BFF9DF81D3023B9A36B43F480339F
:10100C00A363D8E7A36B23F48033F9E7022A4AD110
:10101C00274B284A0B44934239D9274B274A0B4478
:10102C00934236D9A1F57403254AA3F51053934284
:10103C0031D9A1F18373234AA3F5E74393422CD30F
:10104C00214B224A0B44934229D9214B214A0B4470
:10105C00934226D3204B214A0B44934223D3A1F134
:10106C00B7731F4AA3F5585393421ED31D4B1E4A08
:10107C000B4493422CBF06230723C26822F4705200
:10108C00C260C26842EA8323C360002070470F230A
:10109C00F3E70E23F1E70D23EFE70C23EDE70B232A
:1010AC00EBE70A23E9E70923E7E70823E5E700BFB5
:1010BC00405327FFFF340C00401E1BFF3F420F0024
:1010CC007F4F120020D6130060B6E5FE5FE31600DA
:1010DC0000D3CEFE40771B00C05BB3FEC091210055
:1010EC0020753800E05459FEE09C4100836843F0C1
:1010FC000103836000207047836823F00103836041
:10110C000020704738B5C368012905460C4623F00A
:10111C00C043C36013D1C368002443F00053C360C1
:10112C000A200A3403F0B6FC6B69D90702D4C82C28
:10113C00F6D1C824A4F1C8035842584138BD69B946
:10114C00C36843F08043C3600A200A3403F0A2FC56
:10115C006B69DA07EED5C82CF6D1EAE70120EDE78A
:10116C0082B0002302460193019B01330193019B42
:10117C00B3F1706F15D81369002BF5DA89010023D0
:10118C0041F0200101931161019B01330193019BFB
:10119C00B3F1706F05D8106910F02000F4D102B0D3
:1011AC0070470320FBE782B0002302460193019BAA
:1011BC0001330193019BB3F1706F13D81369002BAA
:1011CC00F5DA0023019310231361019B0133019382
:1011DC00019BB3F1706F05D8106910F01000F4D1B9
:1011EC0002B070470320FBE7D0F800381943C0F871
:1011FC00001800207047000084B02DE9F843044625
:10120C0009A880E80E0000239DF824609DF82E505C
:10121C00194603F14002013304EB82020F2B51609B
:10122C00F7D104F50067002D6CD17B6843F0020305
:10123C007B60A36B23F40013A363236843F0400388
:10124C002360236843F0800323600023C4F8003E2E
:10125C009DF82930012B5CD19DF82710002956D11F
:10126C0020464FF67F38FFF7BFFF10212046FFF7CF
:10127C0077FF01462046FFF796FF0843002304F54D
:10128C001062C0B24FF0904C19464FF0006E00380F
:10129C003B617B6118BF0120FB619E423BD8002261
:1012AC0004F530634FF0904C4FF0006E11464FF642
:1012BC007F38964242D83B6923F480733B6100230C
:1012CC00A3616FF0804363619DF826301BB9A3695D
:1012DC0043F01003A361A269224B1343A3619DF851
:1012EC002A301BB1A36943F00803A361012D05D17A
:1012FC00A36943F0804343F00403A361BDE8F843C2
:10130C0004B07047A36B43F40013A3639DE7194625
:10131C00A6E70321A4E7D2F80090B9F1000F0BDA8D
:10132C003BB9C2F800E011610133C2F808802032E9
:10133C00B3E7C2F800C0F6E71160F4E7D3F8009009
:10134C00B9F1000F0BDA3AB9C3F800E019610132B8
:10135C00C3F808802033ACE7C3F800C0F6E7196087
:10136C00F4E700BF00383C80D0F8083813F00600D2
:10137C0004D013F0020F14BF02200F20704730B5B9
:10138C000C78012200F5006304F00F0500EB44100B
:10139C00AA404D78012D19D1DD692A43DA61D0F8C4
:1013AC0000391A0410D48A68D0F80059C2F30A0321
:1013BC000A792B4343EA824343EA845343F0805334
:1013CC0043F40043C0F80039002030BDDC6944EA26
:1013DC000242DA61D0F8003B1B04F5D48B68D0F8DC
:1013EC00002BC3F30A0313430A7943EA824343F005
:1013FC00805343F40043C0F8003BE5E710B50A788E
:10140C00497800EB421300F50060012902F00F024D
:10141C0022D1D3F8001900290BDAD3F8001941F0C6
:10142C000061C3F80019D3F8001941F08041C3F8EA
:10143C0000190121C46B01FA02F224EA0204C4630C
:10144C00C16921EA0202C261154AD3F800190A40A7
:10145C00C3F80029002010BDD3F8001B00290BDABB
:10146C00D3F8001B41F00061C3F8001BD3F8001B3C
:10147C0041F08041C3F8001B4FF48031C46B01FA7A
:10148C0002F224EA0204C463C16921EA0202C261C5
:10149C00044AD3F8001B0A40C3F8002BDAE700BF5C
:1014AC00007833EC0078F3EF002382B04A78019394
:1014BC00012A0B784FEA43131ED100F51060C25875
:1014CC00C118002A02DB002002B07047C25842F05B
:1014DC000062C250C25842F08042C25042F21072B6
:1014EC00019B01330193019B934201D90120EBE74E
:1014FC000B68002BF4DBE6E700F53060C258C1182E
:10150C00002AE0DAC25842F00062C250C25842F0DF
:10151C008042C25042F21072019B01330193019B35
:10152C009342E3D80B68002BF6DBCCE710B59DF8A3
:10153C00084044B9033301329B0800EB023001EB45
:10154C008303994201D1002010BD51F8042B026095
:10155C00F7E700002DE9F7434B78174691F800E0C8
:10156C00012B0A6900EB4E1591F804C06E4B6F4CC1
:10157C0040F08E8005F5106642BB32691340336132
:10158C00336943F400233361336923403361012F02
:10159C0053D1CB6903B17361BCF1010F0CD1D0F8FD
:1015AC00083813F4807FD5F800390CBF43F0005392
:1015BC0043F08053C5F80039D5F8003943F00443A3
:1015CC00C5F80039002003B0BDE8F083D6F81080D0
:1015DC0008EA040434613469234033618B68BEF13A
:1015EC00000F0DD193423CBF1A460B61336943F493
:1015FC00002333613369C2F312041C433461C6E720
:10160C009C18D6F81080BCF1010F04F1FF34B4FB28
:10161C00F3F4474B1FFA84F903EAC44444EA080480
:10162C003461E7D1336923F0C04333614FEA497326
:10163C00346903F0C0432343DBE7D5F80039BCF130
:10164C00010F43F00443C5F800390B690CD0002B93
:10165C00B8D00EF00F0E0123D0F8342803FA0EF395
:10166C001343C0F83438ADE7D0F808289BB212F415
:10167C00807FD5F800290CBF42F0005242F0805216
:10168C00C5F8002972460097C968FFF74FFF99E724
:10169C00D5F8108B05F5306608EA0404346134691A
:1016AC00234033618B68BEF1000F27D102B10B616F
:1016BC000B623269C3F3120313433361336943F48E
:1016CC000023012F336102D1CB6803B17361BCF1EC
:1016DC00010F0CD1D0F8083813F4807FD5F8003BFB
:1016EC000CBF43F0005343F08053C5F8003BD5F8D2
:1016FC00003B43F00443C5F8003B63E7002AD8D015
:10170C009C180B4AD6F810E0013CB4FBF3F4A4B2DD
:10171C0002EAC442634342EA0E020B62C3F31203B1
:10172C00326132691343CCE7FFFF07E00000F8FF9A
:10173C000000F81F70B50023940800F5805502F0E6
:10174C000302A34204D301EB840132B9084670BDF5
:10175C002E6841F823600133F3E700F58050002335
:10176C000468D80024FA00F05854013398B282422D
:10177C00F7D15018EBE74A780B78012A00EB4310AD
:10178C0012D1D0F80029002A06DB2BB1D0F8003991
:10179C0023F08043C0F80039D0F8003943F400132B
:1017AC00C0F8003900207047D0F8002B002A06DB67
:1017BC002BB1D0F8003B23F08043C0F8003BD0F8AD
:1017CC00003B43F40013C0F8003BEBE70B784A787E
:1017DC0000EB43100B79012AA3F10203DBB20FD10A
:1017EC00D0F80029012B22F40012C0F8002905D8EA
:1017FC00D0F8003943F08053C0F80039002070470E
:10180C00D0F8002B012B22F40012C0F8002BF5D8D5
:10181C00D0F8003B43F08053C0F8003BEEE7D0F823
:10182C000038090123F4FE6301F4FE61C0F80038AE
:10183C00D0F800381943C0F8001800207047D0F8D1
:10184C00003E23F00303C0F8003ED0F8043823F028
:10185C000203C0F8043800207047D0F8003E23F093
:10186C000303C0F8003ED0F8043843F00203C0F87C
:10187C000438002070474269806910407047D0F8E6
:10188C00183800F50060C0691840000C7047D0F89B
:10189C00183800F50060C069184080B2704700EB42
:1018AC00411100F50060D1F8082B406910407047D9
:1018BC00D0F81028D0F8343800EB411001F00F01AB
:1018CC0000F51060CB408068DB01DBB2134318409D
:1018DC007047406900F001007047D0F800396FF391
:1018EC000A03C0F80039D0F8043843F48073C0F808
:1018FC00043800207047000030B5056C00F53063EB
:10190C000F4CA54203D9D0F8004B002C16DB002459
:10191C0001291C611C6944F400241C611C6944F0FD
:10192C0018041C611C6944F0C0441C6106D15A6146
:10193C00D0F8003B43F08023C0F8003B002030BDC2
:10194C000A30544FF8B50446002800F03A81036879
:10195C00002B40F00E812368D9062ED5E36933F0B5
:10196C00800304D040F22B21974807F077FD236ABF
:10197C003F2B04D94FF40B71934807F06FFD934A3A
:10198C001369916A03F03803082B07D0182B40F029
:10199C00BF8101F00303012B40F0BA811368DA0513
:1019AC0003D5E369802B40F00C81884A216AD36807
:1019BC0023F07C5343EA0163D36023681D0700F1D5
:1019CC00D3812368980600F1FC8123685B0700F142
:1019DC002B82636A022B04D94FF43D717A4807F0CD
:1019EC003DFD616A002900F0C280784D2B6903F03F
:1019FC003803182B00F09082022940F07C82A36AF5
:101A0C00032B04D940F2FD216F4807F027FD236C0E
:101A1C006BB1043B082B05D840F2111222FA03F3E8
:101A2C00D80704D440F2FE21674807F017FD636C19
:101A3C0033F0020304D040F2FF21634807F00EFD9F
:101A4C00E36A013B3E2B04D94FF440715E4807F02A
:101A5C0005FD236B043BB3F5FE7F04D940F2013145
:101A6C00594807F0FBFC636B013B7F2B04D940F218
:101A7C000231554807F0F2FCA36B013B7F2B04D9D4
:101A8C0040F20331504807F0E9FCE36B013B7F2B3C
:101A9C0004D94FF441714C4807F0E0FCA36CB3F54A
:101AAC00005F04D340F20531474807F0D7FC474D9F
:101ABC002B6823F080732B6002F0E6FF06462B6840
:101ACC00990100F10A82AB6AA26A23F47C7323F0B9
:101ADC0003031343E26A43EA0213AB62636BA26B28
:101AEC00013B013A5B0212049BB202F4FE02134367
:101AFC00226B013AC2F308021343E26B013A12065D
:101B0C0002F0FE4213432B63EB6A23F00103EB62FA
:101B1C006B6BA26C6FF3CF0343EAC2036B63EB6A8C
:101B2C00226C23F00C031343EB62EB6A626C23F020
:101B3C0002031343EB62EB6A43F48033EB62EB6A10
:101B4C0043F40033EB62EB6A43F48023EB62EB6A01
:101B5C0043F00103EB622B6843F080732B6002F0BF
:101B6C0093FF1A4D04462B689A0140F1BD81002069
:101B7C00A4E0980604D140F2A111134807F06EFCC2
:101B8C002368D90734D5636833F4803207D0B3F5B2
:101B9C00A02F04D04FF4D3710B4807F05FFC0B4A15
:101BAC001369916A03F03803102B05D0182B0FD151
:101BBC0001F00303022B0BD113689A0318D5636849
:101BCC00B3B901207AE000BFBDA800080044025858
:101BDC006368924DB3F5803F46D12B6843F4803354
:101BEC002B6002F051FF8D4E054633689B035FD589
:101BFC0023689D077FF5AFAEE268192A03D8884B9E
:101C0C00D340DD0704D44FF4ED71864807F026FC71
:101C1C0023697F2B04D940F2DB11824807F01EFCAC
:101C2C007E49E2680B69886A13F0380303D0182BDD
:101C3C004BD1800749D10B68590701D5002AC0D078
:101C4C00764D2B6823F0190313432B6002F01CFF15
:101C5C0006462B685B0732D56B68226923F0FE437E
:101C6C0043EA02636B6076E69BB92B6823F48033FE
:101C7C002B602B6823F480232B6002F005FF0646B3
:101C8C002B689F03B4D502F0FFFE801B6428F7D9A4
:101C9C0013E0B3F5A02F2B6803D143F480232B6002
:101CAC009BE723F480332B602B6823F4802397E786
:101CBC0002F0EAFE401B642897D90320F8BD02F01D
:101CCC00E3FE801B0228C4D9F7E7544D2B687AB188
:101CDC0023F0190313432B6002F0D6FE06462B6843
:101CEC005F07B9D402F0D0FE801B0228F7D9E4E7D5
:101CFC0023F001032B6002F0C7FE06462B68580741
:101D0C007FF529AE02F0C0FE801B0228F6D9D4E77D
:101D1C00E369424DBBB12B6843F080032B6002F0AA
:101D2C00B3FE06462B68DB0507D5EB68226A23F069
:101D3C007C5343EA0263EB603FE602F0A5FE801B96
:101D4C000228EFD9B9E72B6823F080032B6002F04F
:101D5C009BFE06462B68DF057FF52FAE02F094FE46
:101D6C00801B0228F6D9A8E76369012B04D940F23D
:101D7C006D212C4807F072FB6369284D83B16B6FA2
:101D8C0043F001036B6702F07FFE06466B6F990709
:101D9C003FF517AE02F078FE801B0228F6D98CE7CF
:101DAC006B6F23F001036B6702F06EFE06466B6FE0
:101DBC009A077FF506AE02F067FE801B0228F6D963
:101DCC007BE7A369012B04D94FF42671154807F062
:101DDC0045FBA369114D83B12B6843F480532B60F1
:101DEC0002F052FE06462B689F043FF5EEAD02F062
:101DFC004BFE801B0228F6D95FE72B6823F4805337
:101E0C002B6002F041FE06462B6898047FF5DDAD91
:101E1C0002F03AFE801B0228F6D94EE70044025825
:101E2C0003020202BDA80008A368012B06D9052BEA
:101E3C0004D040F2C221624807F010FB614D2B68C0
:101E4C0043F480732B6002F01FFE06462B68D90505
:101E5C0017D5A3685C4D012B19D12B6F43F00103EF
:101E6C002B6741F2883702F00FFE574E0546336F51
:101E7C009A073FF5AEAD02F007FE401BB842F6D90B
:101E8C001BE702F001FE801B6428DFD915E7B3B90C
:101E9C002B6F41F2883723F001032B672B6F23F054
:101EAC0004032B6702F0F0FD06462B6F9B077FF5B2
:101EBC0090AD02F0E9FD801BB842F6D9FDE6052B8A
:101ECC002B6F03D143F004032B67C6E723F0010308
:101EDC002B672B6F23F00403C2E702F0D5FD801BA8
:101EEC0002287FF6ECADE8E602F0CEFD001B0228DE
:101EFC007FF639AEE1E62B6823F080732B6002F09D
:101F0C00C3FD04462B689B017FF531AE02F0BCFD8E
:101F1C00001B0228F6D9D0E60129AA6A2B6B3FF4E4
:101F2C0050AE02F00301A06A81427FF44AAEC2F3C4
:101F3C000512E16A8A427FF444AE226BC3F30801B6
:101F4C00013A91427FF43DAE626BC3F34621013AF4
:101F5C0091427FF436AEA26BC3F30641013A914233
:101F6C007FF42FAEE26BC3F30663013A93427FF426
:101F7C0028AE6B6BA26CC3F3CC039A423FF4F7AD63
:101F8C00B2F5005F04D34FF45B710D4807F066FAAD
:101F9C000D4DEB6A23F00103EB6202F075FD064672
:101FAC0002F072FDB042FBD06B6BA26C6FF3CF03EF
:101FBC0043EAC2036B63EB6A43F00103EB62D6E5C1
:101FCC00BDA800080048025800440258494B1A6941
:101FDC0002F03802102A30B500F08880182A0CD094
:101FEC00002A40F085801A68434812F0200F03D075
:101FFC001B68C3F3C103D84030BD996A9D6ADC6A83
:10200C0015F47C7FC5F305105A6BF5D0C2F3CC02E6
:10201C0004F0010401F0030107EE900A6243B7EEED
:10202C00006A0129B8EEE77A06EE902AFAEEE96A20
:10203C004ED002293ED000294AD11A68920627D5E3
:10204C0019682D4AC1F3C1011B6BCA40C3F30803C5
:10205C0007EE902AF8EEE75AC5EE877A07EE103AAB
:10206C00B8EEC77A37EE267A37EE067A67EE877ABD
:10207C00204B1B6BC3F34623013307EE103AF8EEEB
:10208C00C76A87EEA67AFCEEC77A17EE900AB3E71A
:10209C001B6BC3F3080307EE903AF8EEE77A77EE82
:1020AC00A67A77EE867A9FED156AC6EE076A67EE1A
:1020BC00A67ADDE71B6BC3F3080307EE903AF8EE44
:1020CC00E77A77EEA67A77EE867A9FED0D6AECE7E3
:1020DC001B6BC3F3080307EE903AF8EEE77A77EE42
:1020EC00A67A77EE867A9FED076ADEE7064883E7E5
:1020FC00064881E7004402580090D0030024744C39
:10210C00001BB74B0024744A00366E0100093D00D9
:10211C002DE9F0410D46044610B90120BDE8F081CF
:10212C000368013B3E2B04D940F2A731914807F0DC
:10213C0095F90F2D04D94FF46A718E4807F08EF97A
:10214C008D4A136803F00F03AB42C0F0EE80236896
:10215C005E0700F1F6802368180715D5874E636972
:10216C00F26902F0700293420ED923F03003402B37
:10217C0004D040F2D6317F4807F070F9F3696269F8
:10218C0023F070031343F3612368D90616D57B4EF5
:10219C00A369F26902F4E06293420FD923F440730D
:1021AC00B3F5806F04D040F2E731724807F056F96E
:1021BC00F369A26923F4E0631343F36123689A067D
:1021CC0015D56E4EE369326A02F0700293420ED955
:1021DC0023F03003402B04D040F2F931654807F06E
:1021EC003DF9336AE26923F07003134333622368C9
:1021FC009B0714D5614EE368B26902F00F0293425B
:10220C000DD9083B072B04D940F20C41594807F073
:10221C0025F9B369E26823F00F031343B361236814
:10222C00DF0700F1B58023689E0700F10A81524A4E
:10223C00136803F00F03AB4200F21B8123685807AD
:10224C0000F123812368190718D54C4D6369EA699D
:10225C0002F07002934211D233F0400208D0502B9E
:10226C0006D0602B04D040F29141424807F0F6F8BA
:10227C00EB69626923F070031343EB612368DA06A0
:10228C001AD53E4DA369EA6902F4E062934213D277
:10229C0033F480620AD0B3F5A06F07D0B3F5C06FEA
:1022AC0004D040F2A341334807F0D8F8EB69A26997
:1022BC0023F4E0631343EB6123689B0618D52F4D81
:1022CC00E3692A6A02F07002934211D233F04002A1
:1022DC0008D0502B06D0602B04D040F2B5412548D5
:1022EC0007F0BCF82B6AE26923F0700313432B62EE
:1022FC00FFF76CFE2149224A8B69C3F30323D35C9D
:10230C0003F01F03D8408B6903F00F03D35C1D4A05
:10231C0003F01F0320FA03F313601B4B18601B4BD5
:10232C00BDE8F041186802F04FBB136823F00F03AF
:10233C002B431360136803F00F03AB427FF4EDAE35
:10234C0005E70E4E2369B26902F0700293427FF6E4
:10235C0002AF23F03003402B04D04FF471710548C9
:10236C0007F07CF8B369226923F070031343B3615F
:10237C00F1E600BFBDA8000800200052004402583E
:10238C004CA8000800000020040000200C000020D5
:10239C00A36833F4006216D023F40072B2F5106F08
:1023AC0011D023F48062B2F5206F0CD023F480722C
:1023BC00B2F5406F07D0B3F5706F04D040F21C41FA
:1023CC003F4807F04BF86368032B04D940F21D41DA
:1023DC003B4807F043F83B4BA1689A6922F47062C2
:1023EC000A439A6161681A6802291DD112F4003FF0
:1023FC003FF493AE1A6941F28838324F22F007024B
:10240C000A431A6102F040FB06463B69626803F01E
:10241C003803B3EBC20F3FF406AF02F035FB801B61
:10242C004045F2D9032079E6032902D112F0007F4E
:10243C00DEE7012902D112F4807FD9E712F0040FF4
:10244C00D6E7204EE368B26902F00F029342BFF464
:10245C00EEAE3BB1083B062B04D940F25E41184866
:10246C0006F0FCFFB369E26823F00F031343B3617A
:10247C00DDE6136823F00F032B431360136803F09E
:10248C000F03AB427FF449AED8E60E4D2369AA691F
:10249C0002F070029342BFF4D5AE33F0400208D084
:1024AC00502B06D0602B04D040F27F41044806F03C
:1024BC00D5FFAB69226923F070031343AB61C1E60E
:1024CC00BDA800080044025808B5FFF77FFD0B4A71
:1024DC000B4993699269C3F3032302F00F02CB5C9F
:1024EC0003F01F0320FA03F3885C064A00F01F0078
:1024FC0023FA00F01060044A136008BD004402582F
:10250C004CA80008000000200400002008B5FFF7CC
:10251C00DBFF054B054ADB69C3F30213D35C03F005
:10252C001F03D84008BD00BF004402584CA8000847
:10253C0008B5FFF7C9FF054B054ADB69C3F3022356
:10254C00D35C03F01F03D84008BD00BF0044025801
:10255C004CA80008F8B5036805460E46013B3E2B17
:10256C0004D940F67261594806F078FF6B68043B59
:10257C00B3F5FE7F04D940F67361544806F06EFF44
:10258C00AB68013B7F2B04D940F674614F4806F0D1
:10259C0065FF2B69013B7F2B04D940F675614B48D5
:1025AC0006F05CFFEB68013B7F2B04D940F67661AB
:1025BC00464806F053FF6B6933F0C00304D040F675
:1025CC007761424806F04AFFAB6933F0200304D030
:1025DC0040F678613D4806F041FFEB69B3F5005FCA
:1025EC0004D340F67961394806F038FF384CA36AB9
:1025FC0003F00303032B67D0236823F0806323606D
:10260C0002F042FA074623681A0149D4A36A2A68E1
:10261C0023F47C3343EA0233A362AB68EA68013BE0
:10262C00013A5B0212049BB202F4FE0213436A6885
:10263C00013AC2F3080213432A69013A120602F066
:10264C00FE421343A363E36A6A6923F0C003134396
:10265C00E362E36AAA6923F020031343E362E36AAB
:10266C0023F01003E362E36BEA696FF3CF0343EAF1
:10267C00C203E363E36A43F01003E362E36AB6B9AF
:10268C0043F40023E362124C236843F0806323601D
:10269C0002F0FAF9054623681B010FD5002005E06E
:1026AC0002F0F2F9C01B0228ADD90320F8BD012EAF
:1026BC000CBF43F4801343F40013E3E702F0E4F996
:1026CC00401B0228E7D9F0E70120EFE71EA900081C
:1026DC0000440258F8B5036805460E46013B3E2BF4
:1026EC0004D940F6DA61594806F0B8FE6B68043B31
:1026FC00B3F5FE7F04D940F6DB61544806F0AEFE1C
:10270C00AB68013B7F2B04D940F6DC614F4806F0E7
:10271C00A5FE2B69013B7F2B04D940F6DD614B48AC
:10272C0006F09CFEEB68013B7F2B04D940F6DE6182
:10273C00464806F093FE6B6933F4406304D040F6D0
:10274C00DF61424806F08AFEAB6933F4007304D0B3
:10275C004FF46E613D4806F081FEEB69B3F5005F06
:10276C0004D340F6E161394806F078FE384CA36A90
:10277C0003F00303032B67D0236823F080532360FB
:10278C0002F082F9074623689A0049D4A36A2A68A2
:10279C0023F07C7343EA0253A362AB68EA68013B03
:1027AC00013A5B0212049BB202F4FE0213436A6804
:1027BC00013AC2F3080213432A69013A120602F0E5
:1027CC00FE4213432364E36A6A6923F440631343B0
:1027DC00E362E36AAA6923F400731343E362E36AD6
:1027EC0023F48073E362636CEA696FF3CF0343EA0B
:1027FC00C2036364E36A43F48073E362E36AB6B9C9
:10280C0043F48003E362124C236843F0805323604B
:10281C0002F03AF9054623689B000FD5002005E02D
:10282C0002F032F9C01B0228ADD90320F8BD012EED
:10283C000CBF43F4000343F08073E3E702F024F988
:10284C00401B0228E7D9F0E70120EFE71EA900089A
:10285C00004402582DE9F8430368054618011ED5BB
:10286C006B6EB3F5001F2BD00FD8D3B1B3F5801F0F
:10287C001DD001262B68D90555D5AB6D042B51D82D
:10288C00DFE803F024434A292900B3F5401FF0D1B7
:10289C00994A696E136D23F440130B43136500269C
:1028AC00E8E7954AD36A43F40033D362F0E7022198
:1028BC0005F10800FFF74EFE06460028DAD1E7E7DF
:1028CC00022105F12800FFF705FFF5E78A4AD36AD4
:1028DC0043F40033D36234463CBB874AA96D136D75
:1028EC0023F007030B4313652B685A0530D5D5F835
:1028FC00A430B3F5800F49D019D8002B39D0B3F5DB
:10290C00001F3CD00126344622E0002105F10800CE
:10291C00FFF720FE0446DFE7002105F12800FFF752
:10292C00D9FEF7E701263446DEE72646DCE723F43A
:10293C000012B2F5000F02D0B3F5C00FE2D15CBBB0
:10294C006D4AD5F8A410936D23F460030B43936583
:10295C002B681B0533D5D5F8A830B3F1007F48D0D0
:10296C001CD8002B38D0B3F1807F3BD001263446E5
:10297C0025E0614AD36A43F40033D362DFE70021D8
:10298C0005F10800FFF7E6FD0446D8E7002105F144
:10299C002800FFF79FFEF7E72646D9E723F0807261
:1029AC00B2F1806F02D0B3F1407FDFD13CBB524A11
:1029BC00D5F8A810936D23F0E0630B4393652B6857
:1029CC009F0128D5EB6C202B3BD01AD8DBB1102BF8
:1029DC0031D0012634461EE0474AD36A43F4003313
:1029EC00D362E3E7002105F10800FFF7B3FD0446CD
:1029FC00DCE7002105F12800FFF76CFEF7E726461F
:102A0C00DDE7302BE5D11CBB3B4AE96CD36C23F0E2
:102A1C0030030B43D3642B68D8042AD5EB6DB3F584
:102A2C00005F78D016D8002B68D0B3F5805F6BD0E0
:102A3C00012634461DE0304AD36A43F40033D36296
:102A4C00E1E7022105F10800FFF784FD0446DAE70F
:102A5C002646E0E7B3F5405F02D0B3F5804FE7D1EF
:102A6C00002C5ED1244AE96D136D23F4E0430B4333
:102A7C0013652B6899040BD52B6EB3F5003F6AD008
:102A8C0051D8002B57D0B3F5803F5DD0012634468A
:102A9C002B685A040CD5D5F8AC30B3F1005F7BD061
:102AAC0061D8002B67D0B3F1805F6ED0012634461D
:102ABC002B681B0411D5EB6EB3F1805F74D0B3F1AE
:102ACC00005F77D0002B7CD1002C7DD10A4AE96EB7
:102ADC00136D23F040530B4313652B68DF0140F15A
:102AEC008480AB6C032B00F21981DFE813F07400C7
:102AFC006F001001740000BF00440258A54AD36A4D
:102B0C0043F40033D362ABE7002105F10800FFF773
:102B1C0021FD0446A4E7002105F12800FFF7DAFDAA
:102B2C00F7E72646A5E723F48032B2F5802F02D0D2
:102B3C00B3F5403FAAD1A4B9964A296E136D23F47C
:102B4C00E0230B431365A3E7012105F10800FFF710
:102B5C0001FD0446EFE7012105F12800FFF7BAFD5E
:102B6C00F7E7264694E723F08052B2F1804F02D06B
:102B7C00B3F1405F9AD1ACB9864AD5F8AC10936DDD
:102B8C0023F0E0430B43936592E7012105F1080024
:102B9C00FFF7E0FC0446EEE7012105F12800FFF702
:102BAC0099FDF7E7264683E77A4AD36A43F4003364
:102BBC00D36289E7012105F10800FFF7CBFC04463D
:102BCC0082E70126344688E7264686E7714AD36AAF
:102BDC0043F40033D362002C40F0A3806D4AA96CFF
:102BEC00D36C23F003030B43D3642B68580240F1DE
:102BFC00A280D5F8B020B2F5807F4DD0B2F5007F21
:102C0C004AD022F4A043B3F50C5F45D022F4104314
:102C1C00B3F5864F40D022F44053B3F5034F3BD06D
:102C2C0022F48831B1F5634F36D05B498B4233D0F7
:102C3C0001F580418B422FD001F580418B422BD086
:102C4C0022F4043001F58041884225D001F5804101
:102C5C008B4221D001F580418B421DD001F5804182
:102C6C008B4219D001F580418B4215D001F5804182
:102C7C008B4211D001F580418B420DD001F5804182
:102C8C008B4209D022F48052444B9A4204D040F239
:102C9C007D31434806F0E2FB424F3B6843F48073BE
:102CAC003B6001F0F1FE80463B68D9053BD5002C1A
:102CBC006ED1384BD5F8B0001A6F424012F4407FF9
:102CCC000BD01A6F196F22F4407241F480311967DE
:102CDC00196F21F4803119671A67B0F5807F42D0E3
:102CEC00D5F8B0302B4903F44072B2F5407F4BD18C
:102CFC0008692D4A20F47C5002EA131202430A613F
:102D0C00C3F30B03234A116F0B43136713E0022128
:102D1C0005F10800FFF71EFC04465CE7012634466B
:102D2C0063E7264661E701F0AFFEA0EB08006428DC
:102D3C00BAD9032634462B68DB0709D5AB6F102BA9
:102D4C004AD033D8002B37D0082B3ED0012634463E
:102D5C002B689F0756D56B6F052B69D8DFE803F0FE
:102D6C004A44624A4A4A01F08FFEDFF8288007463F
:102D7C0041F28839D8F870309A07B1D401F084FE4A
:102D8C00C01B4845F6D9D4E70A6922F47C52B6E751
:102D9C002646D0E7004402580003010000E303007C
:102DAC001EA9000800480258CFFFFF0023F00802BC
:102DBC00202A01D0182BC9D1A4B9204AA96F536D70
:102DCC0023F038030B435365C2E7012105F10800DA
:102DDC00FFF7C0FB0446EFE7012105F12800FFF7E0
:102DEC0079FCF7E72646B3E7012105F10800FFF768
:102DFC00B1FB0446FCB9114A696F536D23F007030C
:102E0C000B4353652B6858072BD5D5F89030052B01
:102E1C0000F2B181DFE813F01A001400A9011A00C6
:102E2C001A001A00012105F12800FFF753FCE0E716
:102E3C0001263446E6E72646E4E700BF0044025884
:102E4C00012105F10800FFF785FB0446002C40F03A
:102E5C009581AE4AD5F89010936D23F007030B4380
:102E6C0093652B68990610D5D5F88C30B3F1005FBB
:102E7C0000F0A08100F28481002B00F08A81B3F174
:102E8C00805F00F09081012634462B685A0610D5DD
:102E9C00D5F89830B3F5006F00F0AE8100F2928156
:102EAC00002B00F09881B3F5806F00F09E81012615
:102EBC0034462B681B0610D5D5F89C30B3F5804FE3
:102ECC0000F0BC8100F2A081002B00F0A681B3F5CC
:102EDC00005F00F0AC81012634462B681F0715D526
:102EEC00D5F88030B3F5805F40F0B081022105F158
:102EFC002800FFF7EFFB002818BF0126834AD5F8FE
:102F0C008010536D23F440530B4353652B68D80644
:102F1C0015D5D5F89430B3F5807F40F0AB81022104
:102F2C0005F12800FFF7D6FB002818BF0126774AC9
:102F3C00D5F89410936D23F440730B4393652B6871
:102F4C0019031BD5D5F8A010B1F5803F00F0A68170
:102F5C00B1F5003F07D0002940F0A68105F108002B
:102F6C00FFF7F8FA0446002C40F0A181674AD5F827
:102F7C00A010936D23F440330B4393652B685A03D5
:102F8C000FD5D5F88430B3F5001F00F0A181B3F54F
:102F9C00401F00F09381B3F5801F00F08A81012659
:102FAC0034462B68DB0316D52B6D002B00F0998172
:102FBC00B3F5803F00F0A38140F28651544806F0EF
:102FCC004DFA2B6D002B00F08C81B3F5803F00F097
:102FDC009681012634462B689F0007D5022105F106
:102FEC002800FFF777FB002818BF01262968880303
:102FFC0040F19D81EA6FB2F5807F00F09A8100F27A
:10300C008781002A00F08A810124C9020FD52B6F19
:10301C0033F0004304D040F2E5513D4806F01EFA6F
:10302C003A4A296F136D23F000430B4313652B6849
:10303C009A020FD5AB6E33F0807304D040F2F95185
:10304C00334806F00BFA314AA96E136D23F08073E6
:10305C000B4313652B685B0013D5D5F8B43033F4F0
:10306C00004304D040F20F61294806F0F7F9274BD2
:10307C001A6922F400421A611A69D5F8B4100A438D
:10308C001A612B68002B12DA6B6D33F0805207D06B
:10309C00B3F1005F04D040F219611D4806F0DEF96F
:1030AC001A4A696DD36C23F040530B43D3642B68DD
:1030BC001F0214D5D5F8883033F4800207D0B3F54D
:1030CC00000F04D040F22361114806F0C7F90F4AF3
:1030DC00D5F88810536D23F440030B4353656B688C
:1030EC00DE0706D5002105F10800FFF733FA074685
:1030FC0000B927466B689C070CD5012105F1080027
:10310C00FFF728FA064630B904E000BF0044025825
:10311C001EA900083E466B68580706D5022105F12A
:10312C000800FFF717FA044600B934466B68190714
:10313C0006D5002105F12800FFF7CCFA064600B9A8
:10314C0026466B68DA0606D5012105F12800FFF743
:10315C00C1FA044600B934466B689B0600F1EF8057
:10316C00201E18BF0120BDE8F883012105F12800BD
:10317C00FFF7B0FA69E60126344672E6264670E699
:10318C0023F08052B2F1804F03D0B3F1405F7FF453
:10319C007AAEACB96F4AD5F88C10536D23F0E0437E
:1031AC000B43536571E6002105F10800FFF7D2F9D6
:1031BC000446EEE7022105F12800FFF78BFAF7E74A
:1031CC00264662E623F48062B2F5805F03D0B3F545
:1031DC00406F7FF46CAEACB95E4AD5F89810936D25
:1031EC0023F4E0530B43936563E6002105F10800DB
:1031FC00FFF7B0F90446EEE7022105F12800FFF7CE
:10320C0069FAF7E7264654E623F40052B2F5004F6C
:10321C0003D0B3F5C04F7FF45EAEACB94D4AD5F8D0
:10322C009C10936D23F460430B43936555E600218A
:10323C0005F10800FFF78EF90446EEE7022105F1CF
:10324C002800FFF747FAF7E7264646E633F4005224
:10325C003FF454AEB3F5405F3FF450AE40F2FC4146
:10326C003D4806F0FBF8D5F88030B3F5805F7FF46D
:10327C0045AE3BE633F400723FF459AEB3F5407FF4
:10328C003FF455AE4FF4A461334806F0E7F8D5F897
:10329C009430B3F5807F7FF44AAE40E6022105F10D
:1032AC002800FFF717FA5DE60126344666E6264647
:1032BC0064E6284AD36A43F40033D3627CB9254AC6
:1032CC00D5F88410536D23F440130B43536568E613
:1032DC00012105F12800FFF7FDF90446EEE726462B
:1032EC005FE61C4AD36A43F40033D36274B9194ABB
:1032FC00296DD36C23F480330B43D3646BE602212A
:10330C0005F10800FFF726F90446EFE7264662E6CA
:10331C0022F48073B3F5007F7FF476AE002C7FF43B
:10332C0074AE0C48436D23F4407313434365344629
:10333C006BE60848C36A43F40033C362EEE702212C
:10334C0005F12800FFF7C6F900283FF409AF01206A
:10335C0009E700BF004402581EA9000808B5FFF792
:10336C00B3F8054B054A1B6AC3F30213D35C03F095
:10337C001F03D84008BD00BF004402584CA80008E9
:10338C004F4970B58C6A8E6ACD6A16F47C3FC6F3D1
:10339C000533CA6B00F0908007EE903AC2F3CC0371
:1033AC00C5F3001204F00304B8EEE77A5343012C82
:1033BC00B7EE006A06EE903AFAEEE96A6ED0022C8D
:1033CC005ED0002C6AD10B689B0647D50A688B6BC4
:1033DC00C2F3C1013B4AC3F30803CA4007EE902A6B
:1033EC00F8EEE75AC5EE877A07EE103AB8EEC77AD0
:1033FC0037EE267A37EE067A67EE877A304A936B89
:10340C00C3F3462307EE103AB8EEC77A37EE067AC6
:10341C00C7EE876AFCEEE66AC0ED006A936BC3F3F5
:10342C00064307EE103AB8EEC77A37EE067AC7EEC7
:10343C00876AFCEEE66AC0ED016A936BC3F3066320
:10344C0006EE903AF8EEE66A76EE866A87EEA67A93
:10345C00FCEEC77A17EE903A836070BD8B6BDFED94
:10346C001A5AC3F3080307EE903AF8EEE77A77EEB0
:10347C00A67A77EE867AC5EE876A67EEA67ABDE7FE
:10348C008B6BDFED125AC3F3080307EE903AF8EE9C
:10349C00E77A77EEA67A77EE867AECE78B6BDFED40
:1034AC000C5AC3F3080307EE903AF8EEE77A77EE7E
:1034BC00A67A77EE867ADEE7C0E90033CCE700BF68
:1034CC00004402580090D0030024744C001BB74BEE
:1034DC000024744A4F4970B58C6A8E6ACD6A16F016
:1034EC007C7FC6F305534A6C00F0908007EE903A4F
:1034FC00C2F3CC03C5F3002204F00304B8EEE77A60
:10350C005343012CB7EE006A06EE903AFAEEE96AE4
:10351C006ED0022C5ED0002C6AD10B689B0647D56E
:10352C000A680B6CC2F3C1013B4AC3F30803CA40DF
:10353C0007EE902AF8EEE75AC5EE877A07EE103AB6
:10354C00B8EEC77A37EE267A37EE067A67EE877AC8
:10355C00304A136CC3F3462307EE103AB8EEC77A21
:10356C0037EE067AC7EE876AFCEEE66AC0ED006AB3
:10357C00136CC3F3064307EE103AB8EEC77A37EE76
:10358C00067AC7EE876AFCEEE66AC0ED016A136C38
:10359C00C3F3066306EE903AF8EEE66A76EE866AB8
:1035AC0087EEA67AFCEEC77A17EE903A836070BD70
:1035BC000B6CDFED1A5AC3F3080307EE903AF8EEE2
:1035CC00E77A77EEA67A77EE867AC5EE876A67EEAB
:1035DC00A67ABDE70B6CDFED125AC3F3080307EEB6
:1035EC00903AF8EEE77A77EEA67A77EE867AECE701
:1035FC000B6CDFED0C5AC3F3080307EE903AF8EEB0
:10360C00E77A77EEA67A77EE867ADEE7C0E90033C2
:10361C00CCE700BF004402580090D0030024744C47
:10362C00001BB74B0024744A314B98422DE9F74FDD
:10363C0004460D4627D003F58063984223D003F54A
:10364C00806398421FD003F5806398421BD003F52A
:10365C008063984217D003F58063984213D003F52A
:10366C00806398420FD003F5806398420BD003F52A
:10367C000063984207D003F58063984203D0B321CE
:10368C001C4805F0EBFE2B689AB212B1B3F5803FE3
:10369C0003D3B421174805F0E1FE6B68B3F5041FA2
:1036AC0011D01DD8B3F5881F0DD009D8032B0AD91A
:1036BC00113B012B07D9B5210E4805F0CFFE02E0D6
:1036CC00B3F5901FF7D14FF0000B0B4FDFF82080B4
:1036DC00DA462E6836FA0AF310D103B0BDE8F08F43
:1036EC00B3F5441FEFD023F48013B3F5081FE9E7BB
:1036FC000000025882A9000800440258012303FA72
:10370C000AF919EA060600F0FB806A6802F0030168
:10371C00013999421BD8EA68032A03D9C42183488A
:10372C0005F09CFE0322A16802FA0BF221EA0201C9
:10373C00EA6802FA0BF20A43A2606A686168C2F393
:10374C00001321EA090103FA0AF30B43636002F048
:10375C000302032A56D0AB68022B03D9D621734837
:10376C0005F07CFE0323E26803FA0BF322EA030262
:10377C00AB6803FA0BF31343E3606B6803F00303CA
:10378C00022B3FD1444526D0694B9C4223D003F5F4
:10379C0080639C421FD003F580639C421BD003F5D1
:1037AC0080639C4217D003F580639C4213D003F5D1
:1037BC0080639C420FD003F580639C420BD003F5D1
:1037CC0000639C4207D003F580639C4203D0E32145
:1037DC00564805F043FE2B690F2B03D9E4215348BF
:1037EC0005F03CFE4FEADA020AF007010F2304EB66
:1037FC0082028900106A8B4020EA03002B698B40FF
:10380C00034313624FF00309206809FA0BF220EA14
:10381C0002006A6802EA090112F4403F01FA0BF156
:10382C0041EA000121606BD0D7F8F4100AEA090CC8
:10383C004FF00F0E444541F002014FEA8C0CC7F8D3
:10384C00F4100EFA0CFED7F8F41001F002010191FD
:10385C0001992AF0030101F1B041D1F8080401F5F6
:10386C00806120EA0E0050D0314B9C424FD0DFF8E3
:10387C00C4E074454DD00EF5806E74454BD003F505
:10388C0040639C4249D003F580639C4247D003F5CA
:10389C0080639C4245D003F580639C4243D003F582
:1038AC0000639C4214BF0A23092303FA0CF312F49D
:1038BC00801F43EA00034FF0B0408B606FEA0601B3
:1038CC0003680CBF0B4033430360436890024FF016
:1038DC00B04054BF0B40334312F4003F4360D0F868
:1038EC0084300CBF0B403343D2034FF0B042C0F8CE
:1038FC008430D0F8803054BF0B403343C2F8803052
:10390C000AF1010A0BF1020BE3E60023CDE70123D8
:10391C00CBE70223C9E74B46C7E70423C5E70523DA
:10392C00C3E70623C1E70723BFE700BF82A900084E
:10393C00000402580008025870B5054616460C469D
:10394C0021B94FF4D571084805F088FD012E06D930
:10395C0040F2AB11044805F081FDAC6170BD002E46
:10396C00FBD12404F9E700BF82A9000803680246D2
:10397C0023498B4210B531D018318B422ED01831DF
:10398C008B422BD018318B4228D018318B4225D04A
:10399C0018318B4222D018318B421FD018318B42F8
:1039AC001CD001F556718B4218D018318B4215D0B2
:1039BC0018318B4212D018318B420FD018318B42F8
:1039CC000CD018318B4209D018318B4206D01831EB
:1039DC008B4203D023F0FF00906510BDDCB21821A0
:1039EC000848103CB4FBF1F101F007015F2C415C7D
:1039FC0023F47F7020F00300D16588BF0430EBE71F
:103A0C0010000240C2AE000802682049D3B28A42BC
:103A1C0028D014318A4225D014318A4222D0143154
:103A2C008A421FD014318A421CD014318A4219D0D8
:103A3C0014318A4216D014318A4213D01821103B0B
:103A4C00B3FBF1F312491144A8291CD903F180529C
:103A5C00012103F01F0302F5024201FA03F30D49A1
:103A6C0092000CE01422083B0121B3FBF2F303F1AA
:103A7C00B05201FA03F3084902F51642920083662C
:103A8C00C0E9182170470833E0E700BF085402581A
:103A9C00F0FBFDBF80080240805802580279511E8D
:103AAC00072910B521D80368134CA3421ED0143437
:103ABC00A3421BD01434A34218D01434A34215D003
:103ACC001434A34212D01434A3420FD01434A342A2
:103ADC000CD01434A34209D0084B1344084A9B0061
:103AEC00C0E91B3201238B40436710BD054B1344C7
:103AFC00054A9B00F4E700BF085402583F820010AF
:103B0C00400902403F96001640590258F8B5044649
:103B1C0000F0BAFF0746002C00F09C812368944EFD
:103B2C00B34249D0934A934246D01832934243D081
:103B3C001832934240D0183293423DD018329342FF
:103B4C003AD01832934237D01832934234D002F51F
:103B5C005672934230D0183293422DD01832934281
:103B6C002AD01832934227D01832934224D01832DC
:103B7C00934221D0183293421ED0183293421BD05C
:103B8C007D4A934218D01432934215D0143293428A
:103B9C0012D0143293420FD0143293420CD0143200
:103BAC00934209D01432934206D01432934203D07C
:103BBC00E621724805F052FCA36833F0400205D0B0
:103BCC00802B03D0E7216D4805F048FCE36833F403
:103BDC00007303D0E821694805F040FC236933F4F5
:103BEC00806303D0E921654805F038FC636933F440
:103BFC00006206D0B3F5805F03D0EA215F4805F080
:103C0C002DFCA36933F4005206D0B3F5804F03D0DA
:103C1C00EB215A4805F022FCE36933F020020BD06B
:103C2C00B3F5807F08D023F40023B3F5802F03D0A5
:103C3C00EC21524805F012FC236A33F4403303D0D4
:103C4C00ED214E4805F00AFC2368B3426DD0494A79
:103C5C0093426AD01832934267D01832934264D0A0
:103C6C001832934261D0183293425ED0183293428C
:103C7C005BD01832934258D002F55672934254D00E
:103C8C001832934251D0183293424ED0183293428C
:103C9C004BD01832934248D01832934245D0183248
:103CAC00934242D0183293423FD0334A934240F071
:103CBC007E816368112B04D940F26B112F4805F0FB
:103CCC00CDFB0223256884F83530002384F834308A
:103CDC00A3682968402B6FF3101100F08681A3F1C3
:103CEC008002534253419B03D4E903200243606991
:103CFC000243A0690243E0690243206A41EA1011C1
:103D0C00204641EAD202134314222B601C4B2B4455
:103D1C00B3FBF2F39B00E365FFF728FEE36D03F0C2
:103D2C001F02012393404360D9E06368892B03D9B8
:103D3C00F121124805F092FB636A53B3042B21D195
:103D4C00A36A032B03D9F7210C4805F087FBE36A20
:103D5C0033F0C07303D0F821084805F07FFB236BC8
:103D6C0033F4C00315D0F921044805F077FB10E0BB
:103D7C00100002402800024008540258E4A9000830
:103D8C00F8ABFDA7F2219C4805F068FB636A002B99
:103D9C00D6D1022384F83530002384F834302368DC
:103DAC00B34221D0954A93421ED0183293421BD075
:103DBC001832934218D01832934215D018329342CD
:103DCC0012D0183293420FD0183293420CD002F515
:103DDC005672934208D01832934205D0183293424F
:103DEC0002D018329342FFD01A6822F001021A60F6
:103DFC0025682B68DB0723D42B68814AA1691A40FC
:103E0C00D4E9023003432069034360690343E0694A
:103E1C000B430343206A0343606A042843EA02030A
:103E2C0002BFD4E90B273A4313436268522A2ED8B7
:103E3C003E2A11D8293A052A14D843F4801311E0EC
:103E4C0000F022FEC01B0528D2D920236365032372
:103E5C0084F835300120F8BD6A4F3F3A27FA02F258
:103E6C00D707EAD42B6004286B6923F0070343EAD5
:103E7C0000032AD1A26AE06A134330B351B9012A74
:103E8C0018D032F0020220D1C1011ED515E0743ACF
:103E9C00032AD1E7B1F5005F13D1032A15D801A18C
:103EAC0051F822F0C73E0008953E0008C73E0008B6
:103EBC00C13E0008B0F1C07F07D1402363650123E8
:103ECC00C6E7022AF9D9032ADED06B612046FFF738
:103EDC004DFDE36D03F01F023F2393408360B54219
:103EEC0045D0464B9D4242D018339D423FD01833AB
:103EFC009D423CD018339D4239D018339D4236D068
:103F0C0018339D4233D018339D4230D003F556738D
:103F1C009D422CD018339D4229D018339D4226D077
:103F2C0018339D4223D018339D4220D018339D4224
:103F3C001DD018339D421AD018339D4217D0324BE6
:103F4C009D4214D014339D4211D014339D420ED097
:103F5C0014339D420BD014339D4208D014339D4230
:103F6C0005D014339D4202D014339D4219D1204602
:103F7C000025FFF749FDA368226E802B04BF0023A8
:103F8C0063606368D9B2013B1160072BD4E9192136
:103F9C0051602CD8FFF782FDE36E1D60D4E91C3212
:103FAC005A6000200123606584F8353053E7174AC6
:103FBC0093423FF47EAE143293423FF47AAE143205
:103FCC0093423FF476AE143293423FF472AE143205
:103FDC0093423FF46EAE143293423FF46AAE143205
:103FEC0093423FF466AE402330E710237CE6C4E9ED
:103FFC001B556567D5E700BFE4A9000828000240FF
:10400C003F8010FE0F030F00085402581C54025836
:10401C00F8B5054600F038FD074645B195F8353042
:10402C00022B06D080236B65002385F834300120E9
:10403C00F8BD2C687D4EB4425ED07D4B9C425BD06B
:10404C0018339C4258D018339C4255D018339C429C
:10405C0052D018339C424FD018339C424CD018335A
:10406C009C4249D003F556739C4245D018339C4270
:10407C0042D018339C423FD018339C423CD018336A
:10408C009C4239D018339C4236D018339C4233D0E2
:10409C0018339C4230D0236823F00E032360654B09
:1040AC009C4232D12A6EB442136823F4807313609D
:1040BC0040D05F4B9C423DD018339C423AD01833D1
:1040CC009C4237D018339C4234D018339C4231D0A8
:1040DC0018339C422ED018339C422BD003F55673C8
:1040EC009C4227D018339C4224D018339C4221D0B8
:1040FC0018339C421ED01DE0236823F01E0323605E
:10410C00636923F080036361CCE74B4B9C42C9D0BD
:10411C0014339C42C6D014339C42C3D014339C42FB
:10412C00C0D014339C42BDD014339C42BAD014334B
:10413C009C42B7D0236823F0010323602368DB077C
:10414C0047D42B68EA6DB342A86D02F01F024BD026
:10415C0037498B4248D018318B4245D018318B42AD
:10416C0042D018318B423FD018318B423CD01831A1
:10417C008B4239D018318B4236D001F556718B42B7
:10418C0032D018318B422FD018318B422CD01831B1
:10419C008B4229D018318B4226D018318B4223D038
:1041AC0018318B4220D018318B421DD0012101FADD
:1041BC0002F242601F4A93421AD1D5E919325A6071
:1041CC00EB6E5BBB0123002085F8353085F834009D
:1041DC002EE700F059FCC01B0528AFD920236B65D6
:1041EC00032385F835301FE73F2393408360E4E7D2
:1041FC00114A9342E1D014329342DED014329342EE
:10420C00DBD014329342D8D014329342D5D014322E
:10421C009342D2D014329342D4D1CEE71A6822F40E
:10422C0080721A60D5E91C325A60CBE7100002404C
:10423C0028000240085402581C54025808B528B1F2
:10424C0090F83530022B03D08023436501205DE0CC
:10425C0003683F4A934251D0183293424ED01832E1
:10426C0093424BD01832934248D01832934245D0E7
:10427C001832934242D0183293423FD018329342B4
:10428C003CD002F55672934238D01832934235D056
:10429C001832934232D0183293422FD018329342B4
:1042AC002CD01832934229D01832934226D018328F
:1042BC00934223D01A6822F00E021A601A6822F078
:1042CC0001021A60234A934221D1026E136823F42F
:1042DC0080731360D0E9161303F01F02012393407F
:1042EC004B60D0E919325A60C36E2BB31A6822F4B2
:1042FC0080721A60D0E91C325A601DE0042280F8EA
:10430C0035201A6822F001021A60002008BD124AFA
:10431C009342DAD014329342D7D014329342D4D091
:10432C0014329342D1D014329342CED014329342F1
:10433C00CBD014329342C8D0012380F835300023FF
:10434C0080F83430036D002BDFD09847DDE700BFD9
:10435C0010000240085402581C54025800232DE946
:10436C00F34101930446844B844F1E680368856DAA
:10437C00BB42D5F80080D5F800C047D0804A9342A4
:10438C0044D01832934241D0183293423ED0183266
:10439C0093423BD01832934238D01832934235D0E6
:1043AC001832934232D002F5567293422ED0183204
:1043BC0093422BD01832934228D01832934225D0F6
:1043CC001832934222D0183293421FD018329342A3
:1043DC001CD01832934219D06A4A934240F039816A
:1043EC00E16D04201A6801F01F01884010EA0C0FDF
:1043FC0000F05681560740F153811104686040F17A
:10440C004781D30300F14A81A36CA0E0E26D08213F
:10441C0002F01F02914011EA080F0BD018684007F8
:10442C0008D5186820F004001860A960616D41F08F
:10443C000101616528FA02F1C80709D55969090615
:10444C0006D501219140A960616D41F002016165C1
:10445C000421914011EA080F07D01868800704D591
:10446C00A960616D41F004016165102101FA02F24D
:10447C0012EA080F0FD0196809070CD5AA601A6840
:10448C0050036CD51B68190301D4236C00E0A36C9A
:10449C000BB120469847E26D202102F01F0291409B
:1044AC0011EA080F7AD02368BB422DD034488342DE
:1044BC002AD01830834227D01830834224D01830A9
:1044CC00834221D0183083421ED0183083421BD037
:1044DC001830834218D000F55670834214D018302F
:1044EC00834211D0183083420ED0183083420BD047
:1044FC001830834208D01830834205D018308342DC
:10450C0002D01830834232D1186810F0100F45D009
:10451C00A96094F83510042936D1196821F01601D8
:10452C001960596921F080015961216C09B9A16C9C
:10453C0019B1196821F0080119603F239340AB6051
:10454C00012384F83530002384F83430236D002B9C
:10455C0000F09B80204602B0BDE8F04118471A6875
:10456C00D20592D41A6822F008021A608DE71868F6
:10457C0010F0020FCBE700BF040000201000024037
:10458C0028000240085402581A68500346D51B688C
:10459C00190350D4636C0BB120469847636D002B04
:1045AC0073D0636DDA0752D5042384F83530236851
:1045BC00BB4221D0514A93421ED0183293421BD099
:1045CC001832934218D01832934215D018329342B5
:1045DC0012D0183293420FD0183293420CD002F5FD
:1045EC005672934208D01832934205D01832934237
:1045FC0002D018329342FFD01A6822F001021A60DE
:10460C004FF41652B6FBF2F6019A0132B242019205
:10461C0013D91B68DB0714D4012313E01A6812F4B6
:10462C00807208D1196821F010011960012384F8F7
:10463C00342084F83530E36BADE71A68D707E3D440
:10464C00E7E7032384F83530002384F83430E36C37
:10465C007DE72B4A93423FF4C3AE143293423FF4AE
:10466C00BFAE143293423FF4BBAE143293423FF4CC
:10467C00B7AE143293423FF4B3AE143293423FF4CC
:10468C00AFAE143293423FF4ABAE02B0BDE8F08152
:10469C00970603D41A6822F004021A60236C56E7BA
:1046AC000220884010EA0C0F16D0960714D56860CB
:1046BC00100403D5D1030DD4636C48E712F020022B
:1046CC0008D1196821F00A011960012384F83420FB
:1046DC0084F83530E36B3AE70820884010EA0C0F79
:1046EC00D3D01207D1D51A6822F00E021A6001231A
:1046FC0003FA01F169606365A4E700BF280002407A
:10470C001C54025838B5431E0546012B04D94FF4EE
:10471C00A171114804F0A2FE104CE36813F0040FD1
:10472C00E36805D103F00703581B18BF012038BDFF
:10473C0023F007032B43E36000F0A6F905466368FA
:10474C009B0401D50020F2E700F09EF9401BB0F568
:10475C007A7FF4D90120EAE745AA000800480258FC
:10476C00024AD36843F08073D36070470048025804
:10477C00C31E042B10B5044603D99121094804F03B
:10478C006DFE09492302CA6803F4E06322F4E06277
:10479C001204120C134343F0BF6343F40033CB6099
:1047AC0010BD00BFA9AA000800ED00E00F2A70B5EB
:1047BC0005460C46164603D9A9211B4804F04EFEAB
:1047CC000F2C03D9AA21184804F048FE174BD968BE
:1047DC00C1F30221C1F107030A1D042B28BF0423D6
:1047EC00062A4FF0FF328CBF0339002102FA03F383
:1047FC00002D02FA01F224EA030326EA020603FA68
:10480C0001F343EA06034FEA0313DBB206DB05F1BF
:10481C00604505F5614585F8003370BD05F00F0561
:10482C00034A5355F9E700BFA9AA000800ED00E0C0
:10483C0014ED00E0002808DB0123410900F01F0003
:10484C00044A834042F821307047BD21024804F0ED
:10485C0005BE00BF00E100E0A9AA00080138B0F1D4
:10486C00807F0BD24FF0E023054AF02158610020E5
:10487C0082F82310072298611A6170470120704753
:10488C0000ED00E0BFF35F8F044B5A6A22F48032D4
:10489C005A620022C3F89420704700BF00ED00E07C
:1048AC00064B40F00100C3F894005A6A42F480327F
:1048BC005A62BFF34F8FBFF36F8F704700ED00E06C
:1048CC0010B5437804460F2B04D940F24D113C48E7
:1048DC0004F0C4FD2378012B04D94FF4A771384898
:1048EC0004F0BCFD237B012B04D940F24F1134485A
:1048FC0004F0B4FDE37A032B07D9053B012B04D953
:10490C004FF4A8712E4804F0A9FDA37A022B04D908
:10491C0040F251112A4804F0A1FD637B012B04D90C
:10492C004FF4A971264804F099FDA37B012B04D9FF
:10493C0040F25311224804F091FDE37B012B04D982
:10494C004FF4AA711E4804F089FD637AFF2B04D141
:10495C0040F255111A4804F081FD237A043B1B2BBD
:10496C0004D94FF4AB71164804F078FD6378154AFE
:10497C00C2F89830D2F8A03023F00103C2F8A0306E
:10498C006368C2F89C30E37A217B1B0643EA01730F
:10499C0021780B43A17A43EAC143617B43EA81430B
:1049AC00A17B43EA4143E17B43EA0143617A43EA59
:1049BC000123217A43EA4103C2F8A03010BD00BFA5
:1049CC00A9AA000800ED00E038B50F4B05461A788F
:1049DC000AB9012038BD4FF47A73B3FBF2F30B4ADA
:1049EC001068B0FBF3F0FFF739FF04460028F0D154
:1049FC000F2DEED8024629464FF0FF30FFF7D6FEBA
:104A0C00034B20461D60E5E7080000200400002051
:104A1C000C00002010B50320FFF7AAFEFDF7D6FA14
:104A2C000F49104A8B69C3F30323D35C03F01F03B4
:104A3C00D8408B6903F00F03D35C0B4A03F01F03C0
:104A4C0020FA03F31360094B18600F20FFF7BCFF2B
:104A5C00044618B904F01AFE204610BD0124FBE7E9
:104A6C00004402584CA8000800000020040000205C
:104A7C00034A044B11681B780B441360704700BF4A
:104A8C001C01002008000020014B1868704700BF73
:104A9C001C01002038B50446FFF7F6FF0546631CE1
:104AAC001EBF044B1B78E418FFF7EEFF431BA34219
:104ABC00FAD338BD0800002010F0706F38B50446EA
:104ACC000D4604D140F27A21044804F0C7FC044A94
:104ADC00506820EA04002843506038BD0DAB000834
:104AEC000004005810B50446E0B102680E4B9A421F
:104AFC0003D0D3210D4804F0B1FC94F8213003F01D
:104B0C00FF0223B9204684F8202004F067F9002026
:104B1C0001236062606184F82130C4E90100C4E9BA
:104B2C00030010BD0120FCE7004402486AAB0008FA
:104B3C002DE9F04F99B004464C22944905A805F094
:104B4C003FFE002C00F0BD822368914A934200F096
:104B5C009C8202F58062934240F09A82A36833F4FF
:104B6C00807207D0B3F5407F04D04FF49C71894814
:104B7C0004F074FCE368042B04D940F23911854825
:104B8C0004F06CFC237C012B04D94FF49D718148FB
:104B9C0004F064FC637C012B04D940F23B117D488A
:104BAC0004F05CFCA37C012B04D94FF49E71794872
:104BBC0004F054FC6369013BB3F5007F04D340F26D
:104BCC003D11744804F04AFCA369013B7F2B04D9C6
:104BDC004FF49F716F4804F041FCE369013BFF2BDC
:104BEC0004D940F23F116B4804F038FC236A013BB6
:104BFC007F2B04D94FF4A071664804F02FFCA368F6
:104C0C00B3F5407F23D1636A013B1F2B04D940F2DB
:104C1C004311604804F022FCA36A013B0F2B04D91A
:104C2C004FF4A2715B4804F019FCE36A013B1F2BA3
:104C3C0004D940F24511574804F010FC236B013B9A
:104C4C000F2B04D94FF4A371524804F007FCA36B4B
:104C5C00802B04D94FF4A4714E4804F0FFFBE36B96
:104C6C00402B04D940F249114A4804F0F7FB236C5D
:104C7C00402B04D94FF4A571464804F0EFFB236C8C
:104C8C005BB1626C122A03D8434BD340DF0704D4C8
:104C9C0040F24D113F4804F0E1FBA36C402B04D9CA
:104CAC0040F24F113B4804F0D9FBA36C5BB1E26CB2
:104CBC00122A03D8384BD340DE0704D44FF4A97121
:104CCC00344804F0CBFB236D402B04D94FF4AA716C
:104CDC00304804F0C3FB236D5BB1626D122A03D81C
:104CEC002D4BD340DD0704D440F25711294804F072
:104CFC00B5FBA36D202B04D940F25911254804F0C3
:104D0C00ADFBD4E917321344202B04D94FF4AD7109
:104D1C00204804F0A3FB236E43B1636E33F0804351
:104D2C0004D040F25D111B4804F098FBD4E9173213
:104D3C00D3420BD0A26E122A03D8174BD340D807FC
:104D4C0004D440F26111134804F088FB94F89830B5
:104D5C0003F0FF0223B9204684F8992004F02CF9C3
:104D6C002268936923F010039361FFF78DFE0546CB
:104D7C0023689A69110700F195819A6942F0010242
:104D8C009A61FFF781FE054608E000BF00A8000805
:104D9C0000A00040CEAB0008F045040023689A69DF
:104DAC00D20740F192819A6942F002029A61227C08
:104DBC00012A9A690CBF22F0400242F040029A612B
:104DCC00627C012A9A690CBF42F4804222F4804230
:104DDC009A61A27C012A9A690CBF22F4805242F497
:104DEC0080529A619A69A06822F4407202439A61D7
:104DFC009A6922F0A4029A611A6922F010021A61CF
:104E0C00E268012A40F068819A6942F004029A61D2
:104E1C00A269B0F5407F02F1FF31E26902F1FF3285
:104E2C004FEA022242EA4162216A01F1FF3142EA71
:104E3C000102616901F1FF3142EA0142DA610ED1EE
:104E4C00E26A511E226B013A120142EA0122A16A66
:104E5C0001390A43616A013942EA0142DA60266E7D
:104E6C002EB1D3F8C020616E0A43C3F8C020D4F829
:104E7C005CE0A26E16EB0E0F01920CD018A80199F3
:104E8C00D3F8C82000EB810122F0070251F84C1C2A
:104E9C000A43C3F8C820D4E910C20392BCF1000F36
:104EAC000CD018A80399D3F8BC2000EB810122F098
:104EBC00070251F84C1C0A43C3F8BC20D4E91289F0
:104ECC00B8F1000F0CD018A9D3F8BC2001EB890164
:104EDC0022F0700251F84C1C42EA0112C3F8BC20BB
:104EEC00226DD4F854B0029262B118A9D3F8BC2048
:104EFC0001EB8B0122F4E06251F84C1C42EA0122D6
:104F0C00C3F8BC20834A934204D161688A6822F0BA
:104F1C0003028A600022804D606BC4F89C20C4F8A8
:104F2C0094200122D4F83CA084F89820D3F8842053
:104F3C002A4042EA8002C3F88420D3F88410A26B82
:104F4C0021F47F0141EA0241C3F884108118D3F89F
:104F5C00887000F180502F4000F52C5047EA8107F3
:104F6C0001EB4A01C3F888708000D3F8887027F4ED
:104F7C00FE0747EA0A47C3F88870D3F8A0702F40A1
:104F8C0047EA8107C3F8A070D3F8A07027F4FE0796
:104F9C0047EA0C47C3F8A070039F07FB0CFCD3F83F
:104FAC00B07061442F4047EA8107C3F8B070D3F862
:104FBC00B07027F4FE0747EA0847C3F8B07009FB46
:104FCC0008F7D3F8AC8001EB070908EA0508029949
:104FDC0048EA89080BFB01FBC3F8AC80D3F8F080DE
:104FEC0009EB0B01D4F8589008EA050848EA810847
:104FFC0001EB4901C3F8F080D3F8F08028F47C1859
:10500C0048EA0948C3F8F080D3F8C08008EA0508DC
:10501C0048EA8101C3F8C010D3F8C01021F47C1108
:10502C0041EA0E41C3F8C010D3F8C01021F07C51F6
:10503C0041EA0661C3F8C01000EB8203019A2367B2
:10504C0003EBCA0302FB0EFE636703EB8C035643B0
:10505C00A36703EB8703E066E36703EB8B03C4F8FA
:10506C00803003EBC903C4F8843003EB8E0303EBED
:10507C008606C4F88830294BC4F890609E4242D909
:10508C00D4F89C3043F0200316E0254B636065E5B3
:10509C00244A93423FF462AD40F23711224804F0A7
:1050AC00DDF95BE5FFF7F0FC401B0A287FF660AEEC
:1050BC00D4F89C3043F00103C4F89C30032384F8EB
:1050CC009830012019B0BDE8F08FFFF7DDFC401BD4
:1050DC000A287FF663AEEBE7002A3FF499AE022A6A
:1050EC000AD09969032A41F080019961196941F04C
:1050FC00100119617FF48CAE9A6942F0200286E6A9
:10510C00002340F8043BD4F890309842F8D30020A8
:10511C00D8E700BF00A000400300FFFFFCD3004015
:10512C0000A1004000D40040CEAB0008704770478F
:10513C0070477047704770477047704770477047AB
:10514C007047704770477047704770477047000052
:10515C002DE9F74FAC4983460C694A6904EA02030E
:10516C000268146D556D00939B0704EA050A146DD3
:10517C00556D01930AF4704A04EA0509146D556DD6
:10518C00166D09F00F0904EA0508546D176D2640D9
:10519C00546D556D08F0F008274006F07156EB057C
:1051AC00146D07F0607708D5E30506D54FF48073CE
:1051BC00136500220A61FFF7C3FF680511D561056D
:1051CC000FD5DBF800204FF48063D2F8DC00D2F866
:1051DC00E410136500238C4A014058461361FFF715
:1051EC00ABFF019B63B1DBF800200021009B58460C
:1051FC001165854903F003020A610199FFF796FFD7
:10520C00BAF1000F0AD0DBF8002000215846C2F892
:10521C0050A07D4A11615146FFF789FFB9F1000F8B
:10522C000AD0DBF8002000215846C2F85090764A8C
:10523C0011614946FFF77CFFB8F1000F0AD0DBF88B
:10524C00002000215846C2F850806F4A1161414637
:10525C00FFF76FFF2A050CD523050AD5DBF80020D4
:10526C004FF40061584611650021674A1161FFF740
:10527C0061FFA80511D5A1050FD5DBF800204FF46F
:10528C000073D2F8D800D2F8E010136500235E4A00
:10529C00014058461361FFF74EFF2A030CD5230338
:1052AC000AD5DBF800204FF4002158461165002187
:1052BC00554A1161FFF741FFE8030CD5E1030AD50C
:1052CC00DBF800204FF480315846116500214E4A1E
:1052DC001161FFF733FF6A030CD563030AD5DBF8C2
:1052EC0000204FF48021584611650021464A116177
:1052FC00FFF725FFA803DBF800100DD5A2030BD593
:10530C004FF4003200200A653F4A1061DBF89C2004
:10531C0042F08002CBF89C203FB10F6500213A4A45
:10532C00584611613946FFF70DFFDBF8001046B106
:10533C00354A00200E651061DBF89C203243CBF817
:10534C009C20324A914263D1DBF8042091688B0790
:10535C005ED0116A506A176A0140506A166A07409B
:10536C00506A156A11F00F0106EA0006506A146AB9
:10537C0007F0300705EA0005506A06F4C076D2F84B
:10538C00249004EA000405F4FC45D2F8208004F4CF
:10539C00F02403D058461162FFF7D5FE37B1DBF885
:1053AC000420394658461762FFF7CEFE19F0400F1D
:1053BC000ED018F0400F0BD0DBF804004027C16B67
:1053CC00C26B090C076202F03F025846FFF7BDFEA4
:1053DC0036B1DBF80420314658461662FFF7B6FEAC
:1053EC003DB1DBF804201562DBF89C202A43CBF896
:1053FC009C206CB1DBF804201462DBF89C20224367
:10540C00CBF89C2004E000BF00A8004000A00040A6
:10541C00DBF89C2012B15846FFF793FE03B0BDE8B1
:10542C00F08F00BF70B50446002848D00268254BA9
:10543C009A4203D0B721244804F010F86368062B75
:10544C0003D9B821204804F009F8A368B3F5805FAC
:10545C0003D3B9211C4804F001F8E368B3F5805F6D
:10546C0003D3BA21184803F0F9FF23684CF6CC4259
:10547C0041F601061A6045F255521A6062685A608C
:10548C00A2689A60FFF700FB05462368DA685207AA
:10549C0006D11969E26891420DD01A61002070BDE5
:1054AC00FFF7F2FA401BB042EFD92368DB685907CB
:1054BC00EBD00320F3E74AF6AA221A60EEE70120AC
:1054CC00EDE700BF0048005831AC0008036859698B
:1054DC009A6942F008029A619A6942F010029A6144
:1054EC001A6822F001021A601A6922F45B7222F027
:1054FC0003021A619A6822F440429A6090F8812063
:10550C00042A0BD08A0609D5D0F8842042F08002F8
:10551C00C0F884209A6942F020029A6190F88120A8
:10552C00032A0BD04A0609D5D0F8842042F0040295
:10553C00C0F884209A6942F040029A618A0509D524
:10554C00D0F8842042F00102C0F884209A6942F419
:10555C0000729A61CA0509D5D0F8842042F008027D
:10556C00C0F884209A6942F480729A610023A0F8F2
:10557C006230A0F86A307047F8B5044608B90120CB
:10558C00F8BD0368974A934216D0A2F5784293422D
:10559C0012D002F5806293420ED002F5784293420B
:1055AC000AD002F5E052934206D08F4A934203D0C0
:1055BC00FE218E4803F052FF636833F4800303D05E
:1055CC00FF218A4803F04AFFA36833F4C02304D0B8
:1055DC004FF48071854803F041FFE368033B1C2BBB
:1055EC0004D940F20111814803F038FFE36B33F02A
:1055FC0060030CD0802B0AD0B3F5807F07D0B3F5B5
:10560C00C07F04D04FF48171784803F027FFA36961
:10561C0033F0806207D0B3F1005F04D040F2031185
:10562C00724803F01BFF636B33F0804304D04FF4DC
:10563C0082716E4803F012FFE36933F0405307D0D8
:10564C00B3F1804F04D040F20511684803F006FF17
:10565C00236A33F4000304D04FF48371634803F0DE
:10566C00FDFE636A73B9236933F0007340F0A580C3
:10567C00636933F0807310D040F20B115B4803F078
:10568C00EDFE0AE0B3F5002F07D040F207115748A2
:10569C0003F0E4FE636A002BE5D022680023514935
:1056AC00A3628A42E3680AD0A1F578418A4206D007
:1056BC0001F580618A4202D00F2B3FF660AFE16B9F
:1056CC0008334909DB0801FB033346498A427AD087
:1056DC00A1F578418A4276D001F580618A4272D078
:1056EC00082B3FF64CAF94F8813003F0FF0223B93E
:1056FC00204684F8802003F013FF2268022361689F
:10570C0084F881301368A66B23F00103136093684F
:10571C0003F4F81CA369B3F1806F04D1B1F5800FC9
:10572C0053D1002E56D011F48000E568176856D07E
:10573C00062D54D927F4807E276D4EEA0707176093
:10574C000B43E76933433D43A76A3D43E76B3D4356
:10575C0045EA0C059560656B2B43656A2B432569FF
:10576C002B4365692B43256A2B43E56C2B43A568BA
:10577C002B43A56C2B43A56D2B43D36059B9936870
:10578C0023F4C05343F400639360936823F4C06321
:10579C0043F480639360136D23F00103136528B108
:1057AC00D368616D23F000430B43D36000200123C9
:1057BC00C4F8840084F88130E2E64FF485710B481C
:1057CC0003F04CFE54E7102B8BE70029ABD1B6F15C
:1057DC00805FA8D1106840F480501060A3E727F4D4
:1057EC008077ACE7003001400014005893AC0008FF
:1057FC00704770477047704708B5806B0023A0F85E
:10580C006A30A0F86230012380F88130FFF7F3FF93
:10581C0008BD70472DE9F047066804463369726984
:10582C00D6F80880110590F8817003EA0205FFB2E2
:10583C0009D51A0707D5B36943F40063B361FFF7C1
:10584C00E8FFBDE8F08705F06403042B18D1636F03
:10585C0020469847236F20469847012305F04509B9
:10586C00B9F1010F03D1236F204698474B4605F041
:10587C002602022A06D1636F2046BDE8F04718477E
:10588C000023EBE7002BDCD12B0751D523689A6959
:10589C0042F008029A619A6942F010029A619A6980
:1058AC0042F400629A611A6922F008021A619B683C
:1058BC0013F4404F1AD02046FFF708FE012384F85A
:1058CC008130D4F8843023B3FFF795FFB9E7E26851
:1058DC00636E0F2A10D92268126B43F8042B63668F
:1058EC00B4F86A30013B9BB2A4F86A30B4F86A3061
:1058FC009BB2002BEBD1DEE7072A03D9328E23F8BB
:10590C00022BECE7226892F830201A70636E013398
:10591C00E5E7052F02D1FFF76DFF92E7042F02D1C7
:10592C00FFF767FF8DE7032F8BD1FFF761FF88E748
:10593C0015F4587F85D068060AD5D4F884302268CF
:10594C0043F00403C4F88430936943F0400393613B
:10595C00A9050AD5D4F88430226843F00103C4F8B1
:10596C008430936943F400739361EA050AD5D4F843
:10597C008430226843F00803C4F88430936943F4FC
:10598C0080739361AB060AD5D4F88430226843F057
:10599C008003C4F88430936943F020039361D4F8F6
:1059AC008430002B3FF44DAF236808F440481A684C
:1059BC00B8F5404F22F001021A601A6922F45A72AB
:1059CC0022F003021A6122D19A68E06F22F440425D
:1059DC009A6050B1104B0365FEF730FC28B1D4F837
:1059EC00843043F04003C4F88430A06F00283FF4A7
:1059FC0028AF094B0365FEF721FC00283FF421AFCB
:105A0C00D4F8843043F04003C4F8843019E7012300
:105A1C00204684F8813057E705580008036A026A6B
:105A2C0023F4003322F4803230B502624468426DB4
:105A3C000D6822F4803222F070022A438D6843EA0A
:105A4C0005430F4DA8420FD005F58065A8420BD039
:105A5C0005F57055A84207D005F58065A84203D01E
:105A6C0005F58065A84204D124F480344D6944EADC
:105A7C000524446042654A688265036230BD00BFFC
:105A8C0000000140036A026A23F4001322F480121E
:105A9C0030B502624468426D0D6822F0807222F4C7
:105AAC00E04242EA05228D6843EA05530E4DA842B6
:105ABC000FD005F58065A8420BD005F57055A842AE
:105ACC0007D005F58065A84203D005F58065A8428E
